:100000000C9481000C940B020C949E000C949E00A6
:100010000C949E000C949E000C949E000C949E00E8
:100020000C949E000C949E000C949E000C949E00D8
:100030000C949E000C949E000C949E000C949E00C8
:100040000C949E000C949E000C949E000C949E00B8
:100050000C949E001E034200690074005000610071
:10006000640034007800340020004D004900440052
:1000700049001403420069007400500061006400EC
:100080003400780034000403090409026500020109
:1000900000003209040000000101000009240100F1
:1000A0000109000101090401000201030000072405
:1000B000010001410006240201010006240202029F
:1000C00000092403010301020100092403020401C1
:1000D0000101000905010308000A000005250101CE
:1000E000010905810308000A00000525010103122A
:1000F00001100100000008C016E405000101020023
:10010000010011241FBECFE5D8E0DEBFCDBF10E057
:10011000A0E6B0E0E2E0FDE002C005900D92AC3751
:10012000B107D9F721E0ACE7B0E001C01D92AE32D3
:10013000B207E1F70E9442060C9473060C9400008B
:10014000CF93C62F20917F0024FF1DC020918000F7
:1001500038E8232720938000E1E8F0E09C01D901F2
:100160002F5F3F4F9C9191939C2F921B980F09F00A
:10017000B2F76C2F81E890E00E940702CC5FC09339
:100180007F00CF9108952AE520937F00E5CFCF939C
:10019000DF9360919800635092F080919C00CCE0D6
:1001A000D0E0C81BD109C356DF4F80919600803143
:1001B00008F044C0CE010E9476031092980080910E
:1001C000610084FF2EC0C0916000CF3F51F16C2FC1
:1001D000C93008F068E08C2F861B80936000809106
:1001E0008B0098E8892780938B00C11561F02091DE
:1001F0007C0027FFBFC08CE890E00E946D03C82FF1
:10020000893008F0DDC06C2F8CE890E00E94070276
:1002100084E08C0FC83019F09FEF909360008093BA
:10022000610084E190B39C7031F48150D9F7109251
:100230009A0010929B00DF91CF9108958D3209F0C2
:1002400086C0683009F0B9CF83EC80938B008AE5D3
:100250008093610010927C008881807679F0CE01D5
:100260000E946B038F3F09F042C0988197FD8E81F9
:1002700090E890937C00809360009FCF9A811092C9
:100280009400E981EC30A8F4F0E0EB58F94F0C94BD
:100290006D0629E930E081E005C01092950024E95F
:1002A00030E082E020937D0030937E0020C0909368
:1002B0009A0024E930E0F6CF9B81913039F4CE01E9
:1002C0000E945B0390E490937C00CCCF9230B9F312
:1002D000933079F59A81913098F486E890E0809394
:1002E0007D0090937E0080E480937C0084E09F8179
:1002F0009111C1CF9E81981708F0BDCF892FBBCF38
:1003000059F482E790E080937D0090937E0080E432
:1003100080937C0084E1EBCF923059F484E590E047
:1003200080937D0090937E0080E480937C008EE13A
:10033000DECF90E490937C00DACF90939900B9CF10
:100340009BE490938000B5CF24E930E0A4CF809166
:100350007C0087FF32CFCE010E9474038F3F21F4CF
:100360008EE18093610029CF811509F426CF109288
:10037000600023CF80917D0090917E00462F480F32
:1003800026FF16C0FC012CE830E05491D9015C93A3
:100390002F5F3F4F31964E13F8CF01962FEF260F68
:1003A000820F911D80937D0090937E00C62F2BCFEE
:1003B000ACE8B0E0FC0121912D934E13FCCFEDCFC2
:1003C0008FEF809360008EE12ACF85B7836085BF71
:1003D0008BB780648BBFEFE7F0E08BE481838AE525
:1003E00080830895A82FB92F80E090E041E050EA83
:1003F000609530E009C02D9182279795879510F080
:1004000084279527305EC8F36F5FA8F30895EADF6D
:100410008D939D930895CF93CFB7CF93C395839B2F
:10042000E9F7839B09C0839B07C0839B05C0839B1F
:1004300003C0839B01C0A6C0DF93C0919C00DD2751
:10044000C356DF4F839B02C0DF91EBCF2F930F93F7
:100450001F9300B32FEF03FB20F94F933F9310B38B
:100460004FEF012703FB21F93BE031C04E7F012F05
:1004700010B3216028C0102F4D7F2260000000B310
:1004800029C04B7F2460012F000010B32BC010B394
:10049000477F28602AC04F7E00B320612CC04F7D6B
:1004A00010B320622FC04F7B00B3206432C04227BC
:1004B00000B349934FEF0000102713FB20F910B34E
:1004C0001C70C9F1297F91F2012703FB21F900B3C8
:1004D000237F89F2315058F1102713FB22F910B312
:1004E000277E79F2012703FB23F92F7C81F200B3E9
:1004F000102713FB24F92F7971F200C010B30127E4
:1005000003FB25F92F7359F200C000B3102713FB2A
:1005100026F9223040F200C010B3012703FB27F96F
:10052000243028F64F77206810B30000F9CF10E48C
:100530001ABF00271CC03B503195C31BD04010E4AC
:100540001ABF0881033C11F10B3401F120919B008B
:100550001981110F1213EDCF4A81441F093659F149
:100560000D3211F0013E29F74F7009F0042F00936E
:1005700097003F914F911F910F912F91DF91CAB733
:10058000C6FD4CCFCF91CFBFCF911895209197004A
:10059000222379F310919800112369F534306AF120
:1005A000309398002093960010919C003BE0311B03
:1005B00030939C0022C0009198000130E4F40AE5D9
:1005C0004F7049F43091610034FD19C0009361000F
:1005D000CBE8D0E018C030917F0034FD10C000930C
:1005E0007F00C0E8D0E00FC02795A8F45150A9F4CF
:1005F000220F0000F9CF4AE503C042ED01C0432FAE
:10060000C4E1D0E032E011B31C60939A11BB02B395
:1006100020E41CE05F93012756E002BB279520F4FD
:10062000515021F4220FF9CF012756E000003B5A28
:1006300002BBD0F2279528F4515029F4220F000074
:10064000F9CF012756E0279502BB20F4515021F441
:10065000220FF9CF012756E02991332302BB21F65F
:10066000037F10919A00110FC651D04002BB11F0C8
:1006700010939B0010E41ABF086011B3137F402F42
:10068000437F5F9100C000C002BB11BB42BB71CF72
:10069000E091B300F0E0DF011496AF739091B400E5
:1006A0009A1741F0EB54FF4F808361834283238389
:1006B000A093B3000895FC018381813041F02AE8C2
:1006C00030E085E620937D0030937E0008952FEE84
:1006D00030E082E1F7CF8FEF089527E0FC0111921F
:1006E0002A95E9F787E0089581E00895089510922A
:1006F000B3001092B4000895242F2F77462F4F7720
:100700008F70682F606989E00C944803242F2F773D
:10071000462F4F778F70682F606888E00C944803ED
:10072000242F2F77462F4F778F70682F606B8BE0C9
:100730000C944803CF938091B4004091B300841788
:10074000C9F090917F0094FF15C090E09C012C5F50
:100750002F73421719F0C8E0211101C0C4E06C2FBB
:100760008B549F4F0E94A0008091B4008C0F8F7318
:100770008093B400CF910895E6E6F0E041E050E0C8
:1007800087B32191BA0101C0660F2A95EAF7862B3B
:1007900087BB88B3DF012E91DA0101C0AA0F2A9529
:1007A000EAF78A2B88BBB0E0EA36FB0749F7E2E6B6
:1007B000F0E066E670E041E050E02AB38191DA01B2
:1007C00001C0AA0F8A95EAF78A2F809582238ABBF7
:1007D0008BB3DF012E91DA0101C0AA0F2A95EAF747
:1007E0008A2B8BBB6E177F0741F710920501109281
:1007F0000601E5EFF0E080E1DF011D928A95E9F75F
:100800000895EF92FF920F931F93CF93DF93A6E685
:10081000B0E020E030E0B901E1E0F0E048B38D91D4
:10082000EF0101C0CC0F8A95EAF78C2F80958423C5
:1008300088BBD4E1DA95F1F7C9B382E690E0A9016B
:10084000EC2EF12CEC011991CE01E70102C0D595F7
:10085000C7951A95E2F7C0FD09C08F01042E02C0AA
:10086000000F111F0A94E2F7602B712B4F5F5F4F4F
:10087000D0E086369D0731F788B3ED014A91EF014C
:1008800001C0CC0F4A95EAF78C2B88BB2C5F3F4FF9
:100890002031310519F68091050190910601E5EFAF
:1008A000F0E020E030E0C1E0D0E0DE01022E02C046
:1008B000AA0FBB1F0A94E2F7AB01482759274A2326
:1008C0005B23452BC1F040814F5F453090F440835E
:1008D0002F5F3F4F31962031310539F78093050165
:1008E00090930601DF91CF911F910F91FF90EF90B0
:1008F00008958A279B271082EBCF80910501909164
:1009000006010895CF93DF93C1E0D0E0082E02C026
:10091000CC0FDD1F0A94E2F72091090130910A0102
:100920002C233D2321153105D9F0282F2695269516
:1009300063E070E0621B675F660F660F8370680F8D
:1009400040E080E00E948603C095D0958091090127
:1009500090910A018C239D238093090190930A01B1
:10096000DF91CF910895CF93C82FE82FF0E08091C9
:100970002D01811123C08C2F8695869563E070E050
:10098000681B675F660F660F8C2F8370680F4FE7D9
:1009900080E00E947C0321E030E002C0220F331F80
:1009A000CA95E2F78091090190910A01822B932B5D
:1009B0008093090190930A01CF910895E659FF4F62
:1009C00060816F3FC9F34FE781E0CF910C949003B2
:1009D00010922D0110920B0110920C01109209013E
:1009E00010920A01109208011092070180E1EDE1D6
:1009F000F1E0DF01982F1D929A95E9F7EDE0F1E023
:100A0000DF011D928A95E9F780E00C943406AF92DD
:100A1000BF92CF92DF92EF92FF920F931F93CF93EB
:100A2000DF930E947D0420910B0130910C0169013C
:100A3000C094D094C822D9227C01E094F094E222A0
:100A4000F32280930B0190930C010DE111E058010A
:100A5000C0E0D0E081E090E00C2E02C0880F991F2A
:100A60000A94E2F78C219D21892B39F18C2F9091EA
:100A70000801911549F090912D01911105C0C930DF
:100A800089F063E1CD3079F0811519F0833009F0F8
:100A90008FC021E0F5012083FE01E35FFE4F3EE1C0
:100AA00030830BC062E14FE780E00E94900381E059
:100AB0008093070183E0F501808321963FEFA31A1D
:100AC000B30AC031D10531F680911D01813009F0A2
:100AD0007BC090912C01913009F076C083E0809327
:100AE0001D0180932C01C0E08C2F0E948204CF5FF7
:100AF000C031D1F71092080110920701E0912D0149
:100B00003196CF01817080932D010E9434069DE0C3
:100B1000C92E91E0D92E2DE1A22E21E0B22EC0E007
:100B2000D2E0F50181915F01813049F4F6018081C5
:100B3000811173C08C2F0E94B304F501D293CF5F53
:100B4000FFEFCF1ADF0AC03161F7C0E0D0E05E01ED
:100B5000A394C5010C2E02C0880F991F0A94E2F7D6
:100B60008E219F21892B09F462C0DC2E809108011F
:100B7000811591F03CE0C31719F08FE0C8130CC049
:100B800080910701811104C04FE761E10E94900349
:100B90001092080110920701F8018081813009F05C
:100BA00041C08D2D0E94B3048D2D0E9482043DC052
:100BB0008C3009F46ECF8F3009F46BCF0E94B304F0
:100BC00022E0F501208379CF90912D0191119FCFE3
:100BD000813079F480912001813059F483E0809351
:100BE0001D01809320014FE760E180E00E949003A7
:100BF0008ECF80912901813009F089CF80912C011D
:100C0000813009F084CF93E09093290190932C01D7
:100C100080930801109207017ACF8150808381115F
:100C20008ECF88CF823009F4BFCFF8011082219691
:100C30000F5F1F4FC031D10509F08BCFDF91CF91EE
:100C40001F910F91FF90EF90DF90CF90BF90AF90EA
:100C5000089580912D0108958C9A81E28FBD8AE0DC
:100C60008EBD19BC18BC0895823048F4E82FF0E01E
:100C7000E658FF4F808190E099BD88BD08958FEFC1
:100C800090E0FACFF8940E94BC030E942C060E94C8
:100C900077038BE083BF8BEB8CBF82E088BF0E9421
:100CA000E5018B9A2FE785E899E02150804090403C
:100CB000E1F700C000008B9878940E94E804C2E03D
:100CC0000E94C70008B601FE05C0C8BF0E9401040B
:100CD0000E9407050E949A03F3CFEE0FFF1F0590B5
:100CE000F491E02D0994F894FFCF4D015901590179
:100CF0005901590157015C01590149019D01A401A4
:020D0000A00150
:100D0200FF5A0100020305000304161B1C17181DDD
:0C0D12001E1914FFFFFF15FFFF1A28FF39
:00000001FF
