:100000000C9479000C9403020C9496000C949600C6
:100010000C9496000C9496000C9496000C94960008
:100020000C9496000C9496000C9496000C949600F8
:100030000C9496000C9496000C9496000C949600E8
:100040000C9496000C9496000C9496000C949600D8
:100050000C94960016034A004A00340078003400DD
:1000600020004D004900440049000C034A004A00AA
:100070003400780034000403090409026500020119
:100080000000320904000000010100000924010001
:100090000109000101090401000201030000072415
:1000A00001000141000624020101000624020202AF
:1000B00000092403010301020100092403020401D1
:1000C0000101000905010308000A000005250101DE
:1000D000010905810308000A00000525010103123A
:1000E00001100100000008C016E405000101020033
:1000F000010011241FBECFE5D8E0DEBFCDBF10E068
:10010000A0E6B0E0ECEDFEE002C005900D92AC3947
:10011000B107D9F721E0ACE9B0E001C01D92AF34DE
:10012000B207E1F70E9405070C9460070C940000E9
:10013000CF93C62F20919F0024FF1DC02091A000C7
:1001400038E823272093A000E1EAF0E09C01D901E0
:100150002F5F3F4F9C9191939C2F921B980F09F01A
:10016000B2F76C2F81EA90E00E94FF01CC5FC09350
:100170009F00CF9108952AE520939F00E5CFCF936C
:10018000DF936091B800635092F08091BC00CCE0A6
:10019000D0E0C81BD109C354DF4F8091B600803135
:1001A00008F044C0CE010E946E031092B800809106
:1001B000610084FF2EC0C0916000CF3F51F16C2FD1
:1001C000C93008F068E08C2F861B80936000809116
:1001D000AB0098E889278093AB00C11561F02091AE
:1001E0009C0027FFBFC08CEA90E00E946503C82FE7
:1001F000893008F0DDC06C2F8CEA90E00E94FF018E
:1002000084E08C0FC83019F09FEF909360008093CA
:10021000610084E190B39C7031F48150D9F7109261
:10022000BA001092BB00DF91CF9108958D3209F092
:1002300086C0683009F0B9CF83EC8093AB008AE5C3
:100240008093610010929C008881807679F0CE01C5
:100250000E9463038F3F09F042C0988197FD8E8111
:1002600090E890939C00809360009FCF9A811092B9
:10027000B400E981EC30A8F4F0E0EE59F84F0C94AA
:100280005A0729EB30E081E005C01092B50024EB5D
:1002900030E082E020939D0030939E0020C0909338
:1002A000BA0024EB30E0F6CF9B81913039F4CE01D7
:1002B0000E94530390E490939C00CCCF9230B9F30A
:1002C000933079F59A81913098F486E790E08093A5
:1002D0009D0090939E0080E480939C0084E09F8129
:1002E0009111C1CF9E81981708F0BDCF892FBBCF48
:1002F00059F48AE690E080939D0090939E0080E4FC
:1003000080939C008CE0EBCF923059F484E590E030
:1003100080939D0090939E0080E480939C0086E1F2
:10032000DECF90E490939C00DACF9093B900B9CFE0
:100330009BE49093A000B5CF24EB30E0A4CF809154
:100340009C0087FF32CFCE010E946C038F3F21F4C7
:100350008EE18093610029CF811509F426CF109298
:10036000600023CF80919D0090919E00462F480F02
:1003700026FF16C0FC012CEA30E05491D9015C93B1
:100380002F5F3F4F31964E13F8CF01962FEF260F78
:10039000820F911D80939D0090939E00C62F2BCFBE
:1003A000ACEAB0E0FC0121912D934E13FCCFEDCFD0
:1003B0008FEF809360008EE12ACF85B7836085BF81
:1003C0008BB780648BBFEFE9F0E08BE481838AE533
:1003D00080830895A82FB92F80E090E041E050EA93
:1003E000609530E009C02D9182279795879510F090
:1003F00084279527305EC8F36F5FA8F30895EADF7E
:100400008D939D930895CF93CFB7CF93C395839B3F
:10041000E9F7839B09C0839B07C0839B05C0839B2F
:1004200003C0839B01C0A6C0DF93C091BC00DD2741
:10043000C354DF4F839B02C0DF91EBCF2F930F9309
:100440001F9300B32FEF03FB20F94F933F9310B39B
:100450004FEF012703FB21F93BE031C04E7F012F15
:1004600010B3216028C0102F4D7F2260000000B320
:1004700029C04B7F2460012F000010B32BC010B3A4
:10048000477F28602AC04F7E00B320612CC04F7D7B
:1004900010B320622FC04F7B00B3206432C04227CC
:1004A00000B349934FEF0000102713FB20F910B35E
:1004B0001C70C9F1297F91F2012703FB21F900B3D8
:1004C000237F89F2315058F1102713FB22F910B322
:1004D000277E79F2012703FB23F92F7C81F200B3F9
:1004E000102713FB24F92F7971F200C010B30127F4
:1004F00003FB25F92F7359F200C000B3102713FB3B
:1005000026F9223040F200C010B3012703FB27F97F
:10051000243028F64F77206810B30000F9CF10E49C
:100520001ABF00271CC03B503195C31BD04010E4BC
:100530001ABF0881033C11F10B3401F12091BB007B
:100540001981110F1213EDCF4A81441F093659F159
:100550000D3211F0013E29F74F7009F0042F00937E
:10056000B7003F914F911F910F912F91DF91CAB723
:10057000C6FD4CCFCF91CFBFCF9118952091B7003A
:10058000222379F31091B800112369F534306AF110
:100590003093B8002093B6001091BC003BE0311BB3
:1005A0003093BC0022C00091B8000130E4F40AE5A9
:1005B0004F7049F43091610034FD19C0009361001F
:1005C000CBEAD0E018C030919F0034FD10C00093FA
:1005D0009F00C0EAD0E00FC02795A8F45150A9F4BD
:1005E000220F0000F9CF4AE503C042ED01C0432FBE
:1005F000C4E1D0E032E011B31C60939A11BB02B3A6
:1006000020E41CE05F93012756E002BB279520F40D
:10061000515021F4220FF9CF012756E000003B5A38
:1006200002BBD0F2279528F4515029F4220F000084
:10063000F9CF012756E0279502BB20F4515021F451
:10064000220FF9CF012756E02991332302BB21F66F
:10065000037F1091BA00110FC651D04002BB11F0B8
:100660001093BB0010E41ABF086011B3137F402F32
:10067000437F5F9100C000C002BB11BB42BB71CF82
:10068000E091D300F0E0DF011496AF739091D400B5
:100690009A1741F0EB52FF4F80836183428323839B
:1006A000A093D3000895FC018381813041F02AE7B3
:1006B00030E085E620939D0030939E0008952FED55
:1006C00030E082E1F7CF8FEF089527E0FC0111922F
:1006D0002A95E9F787E0089581E00895089510923A
:1006E000D3001092D4000895242F2F77462F4F77F0
:1006F0008F70682F606989E00C944003242F2F7756
:10070000462F4F778F70682F606888E00C94400305
:10071000242F2F77462F4F778F70682F606B8BE0D9
:100720000C944003CF938091D4004091D300841760
:10073000C9F090919F0094FF15C090E09C012C5F40
:100740002F73421719F0C8E0211101C0C4E06C2FCB
:100750008B529F4F0E9498008091D4008C0F8F7312
:100760008093D400CF910895E7E6F0E041E050E0B7
:1007700087B32191BA0101C0660F2A95EAF7862B4B
:1007800087BB88B3DF012E91DA0101C0AA0F2A9539
:10079000EAF78A2B88BBB0E0EB36FB0749F7E3E6C4
:1007A000F0E067E670E041E050E02AB38191DA01C1
:1007B00001C0AA0F8A95EAF78A2F809582238ABB07
:1007C0008BB3DF012E91DA0101C0AA0F2A95EAF757
:1007D0008A2B8BBB6E177F0741F710922501109271
:1007E0002601E5E1F1E080E1DF011D928A95E9F75C
:1007F0000895EF92FF920F931F93CF93DF93A7E695
:10080000B0E020E030E0B901E1E0F0E048B38D91E4
:10081000EF0101C0CC0F8A95EAF78C2F80958423D5
:1008200088BBD4E1DA95F1F7C9B383E690E0A9017A
:10083000EC2EF12CEC011991CE01E70102C0D59507
:10084000C7951A95E2F7C0FD09C08F01042E02C0BA
:10085000000F111F0A94E2F7602B712B4F5F5F4F5F
:10086000D0E087369D0731F788B3ED014A91EF015B
:1008700001C0CC0F4A95EAF78C2B88BB2C5F3F4F09
:100880002031310519F68091250190912601E5E18D
:10089000F1E020E030E0C1E0D0E0DE01022E02C055
:1008A000AA0FBB1F0A94E2F7AB01482759274A2336
:1008B0005B23452BC1F040814F5F453090F440836E
:1008C0002F5F3F4F31962031310539F78093250155
:1008D00090932601DF91CF911F910F91FF90EF90A0
:1008E00008958A279B271082EBCF80912501909154
:1008F00026010895CF93C82F80914D012C2F30E011
:10090000813018F58C2F8695869563E070E0681B22
:10091000675F660F660F8C2F8370680F4FE780E06C
:100920000E94740321E030E002C0220F331FCA95F9
:10093000E2F78091290190912A01822B932B8093D9
:10094000290190932A01CF91089541F425583F4FF2
:100950004FE7F9016081CF910C94880325593F4FEF
:100960004FE7F901608182E0F6CFCF93DF93C1E0DA
:10097000D0E0082E02C0CC0FDD1F0A94E2F72091D0
:10098000290130912A012C233D2321153105D9F06D
:10099000282F2695269563E070E0621B675F660F3F
:1009A000660F8370680F40E080E00E947E03C09570
:1009B000D0958091290190912A018C239D238093C9
:1009C000290190932A01DF91CF91089510924D0152
:1009D00010922B0110922C011092290110922A01E1
:1009E000109228011092270180E1EDE3F1E0DF0190
:1009F000982F1D929A95E9F7EDE2F1E0DF011D9243
:100A00008A95E9F780E00E94500680914D010C9490
:100A1000F506AF92BF92CF92DF92EF92FF920F93C3
:100A20001F93CF93DF930E94750420912B01309187
:100A30002C016901C094D094C822D9227C01E09491
:100A4000F094E222F32280932B0190932C010DE38A
:100A500011E05801C0E0D0E081E090E00C2E02C02F
:100A6000880F991F0A94E2F78C219D21892B31F17F
:100A70008C2F90912801911549F090914D01911181
:100A800005C0C13081F063E1C53071F0811519F006
:100A9000833009F094C021E0F5012083FE01E35D7D
:100AA000FE4F8EE10AC062E14FE780E00E948803BA
:100AB00081E08093270183E0F501808321968FEF09
:100AC000A81AB80AC031D10539F690913D0191308C
:100AD00009F081C080914C01813009F07CC083E035
:100AE00080933D0180934C01C0E08C2F0E94B5049F
:100AF000CF5FC031D1F71092280110922701809169
:100B00004D0190E0019663E070E00E9446078093FB
:100B10004D010E94500680914D010E94F5069DE214
:100B2000C92E91E0D92E2DE3A22E21E0B22EC0E0F5
:100B3000D2E0F50181915F01813049F4F6018081B5
:100B4000811187C08C2F0E947A04F501D293CF5F68
:100B5000FFEFCF1ADF0AC03161F7C0E0D0E05E01DD
:100B6000A394C5010C2E02C0880F991F0A94E2F7C6
:100B70008E219F21892B09F476C0DC2E80912801DB
:100B8000811589F0C11519F083E0C8130CC080915C
:100B90002701811104C04FE760E10E948803109291
:100BA000280110922701F8018081813009F056C098
:100BB0008D2D0E947A048D2D0E94B50452C08C3078
:100BC00009F469CF8F3009F466CF0E947A0422E0DD
:100BD000F501208373CF80914001813099F42091F9
:100BE0004901213079F483E08093400180934901E9
:100BF000C0E08C2F0E94B504CF5FC031D1F70E94B6
:100C0000F9068DCF20914D01211189CF913061F4EA
:100C1000813051F493E090933D0190934001809393
:100C20002801109227017BCF80914901813009F082
:100C300076CF80914C01813009F071CF83E08093B1
:100C4000490180934C014FE761E180E00E948803F5
:100C500066CF8150808381117ACF74CF823009F4BE
:100C6000AACFF801108221960F5F1F4FC031D10526
:100C700009F077CFDF91CF911F910F91FF90EF9007
:100C8000DF90CF90BF90AF90089580914D0108956F
:100C90008C9A81E28FBD8AE08EBD19BC18BC089584
:100CA000833048F4E82FF0E0E557FF4F808190E073
:100CB00099BD88BD08958FEF90E0FACF80ED97E061
:100CC00006B607FC04C00197D9F780E0089581E0DB
:100CD0000895EF92FF920F931F93CF93DF93CDB7B9
:100CE000DEB72C970FB6F894DEBF0FBECDBF809154
:100CF0004E018330E8F590E0E0916200F0E0E257C9
:100D0000FF4F4081FC01EE0FFF1FE80FF91FED566A
:100D1000FF4F8081489FC0011124292F8181489F66
:100D2000C00111248281489FA0011124852F2983AD
:100D30009A838B832C839D838E832F8398878987C7
:100D40002A879B878C8784EA86BF0E945E06811172
:100D500013C084E986BF2C960FB6F894DEBF0FBE91
:100D6000CDBFDF91CF911F910F91FF90EF9008952C
:100D700080E090E020E0DBCF81B1887F883049F7C8
:100D800080EB83B984E886BF0E945E06811509F373
:100D900081B1887F8831E9F68E010F5F1F4F7E0198
:100DA0008DE0E80EF11CF801808183B9F4E8F6BF0C
:100DB0000E945E06811569F281B1887F883249F60A
:100DC0000F5F1F4FE016F10671F7C3CF85B3836045
:100DD00085BB11B88CE080B984E086BF10924E01CB
:100DE00082E0809362000C94690680934E010C941B
:100DF00069068091620090E0019665E070E00E94D3
:100E00003207809362000C946906F8940E94B40340
:100E10000E9448060E94E6060E946F038BE083BF93
:100E20008BEB8CBF82E088BF0E94DD018B9A2FE79D
:100E300085E899E0215080409040E1F700C0000033
:100E40008B9878940E94E604C2E00E94BF0008B626
:100E500001FE05C0C8BF0E94F9030E9409050E9457
:100E60009203F3CFAA1BBB1B51E107C0AA1FBB1FF4
:100E7000A617B70710F0A61BB70B881F991F5A9526
:100E8000A9F780959095BC01CD01089597FB072E99
:100E900016F4009407D077FD09D00E94320707FCB2
:100EA00005D03EF4909581959F4F0895709561957A
:100EB0007F4F0895EE0FFF1F0590F491E02D0994E8
:100EC000F894FFCF450151015101510151014F01EA
:0C0ED00054015101410195019C01980161
:100EDC00FF5A0201000203050003041F14202127FE
:100EEC001528222324292A2B2C2D2E1F14202118BF
:100EFC0015192223241E1A161C1B1728A0FF1030AC
:0C0F0C0060A0FF00005000500050003CAE
:00000001FF
