:100000000C9479000C9403020C9496000C949600C6
:100010000C9496000C9496000C9496000C94960008
:100020000C9496000C9496000C9496000C949600F8
:100030000C9496000C9496000C9496000C949600E8
:100040000C9496000C9496000C9496000C949600D8
:100050000C94960016034A004A00340078003400DD
:1000600020004D004900440049000C034A004A00AA
:100070003400780034000403090409026500020119
:100080000000320904000000010100000924010001
:100090000109000101090401000201030000072415
:1000A00001000141000624020101000624020202AF
:1000B00000092403010301020100092403020401D1
:1000C0000101000905010308000A000005250101DE
:1000D000010905810308000A00000525010103123A
:1000E00001100100000008C016E405000101020033
:1000F000010011241FBECFE5D8E0DEBFCDBF10E068
:10010000A0E6B0E0E0E5FDE002C005900D92AE385B
:10011000B107D9F721E0AEE8B0E001C01D92A034EC
:10012000B207E1F70E9441060C949A060C94000075
:10013000CF93C62F2091910024FF1DC020919200E3
:1001400038E8232720939200E3E9F0E09C01D901ED
:100150002F5F3F4F9C9191939C2F921B980F09F01A
:10016000B2F76C2F83E990E00E94FF01CC5FC0934F
:100170009100CF9108952AE520939100E5CFCF9388
:10018000DF936091AA00635092F08091AE00CCE0C2
:10019000D0E0C81BD109C155DF4F8091A800803144
:1001A00008F044C0CE010E946E031092AA00809114
:1001B000610084FF2EC0C0916000CF3F51F16C2FD1
:1001C000C93008F068E08C2F861B80936000809116
:1001D0009D0098E8892780939D00C11561F02091CA
:1001E0008E0027FFBFC08EE990E00E946503C82FF4
:1001F000893008F0DDC06C2F8EE990E00E94FF018D
:1002000084E08C0FC83019F09FEF909360008093CA
:10021000610084E190B39C7031F48150D9F7109261
:10022000AC001092AD00DF91CF9108958D3209F0AE
:1002300086C0683009F0B9CF83EC80939D008AE5D1
:100240008093610010928E008881807679F0CE01D3
:100250000E9463038F3F09F042C0988197FD8E8111
:1002600090E890938E00809360009FCF9A811092C7
:10027000A600E981EC30A8F4F0E0E456F94F0C94C4
:1002800080062BEA30E081E005C01092A70026EA44
:1002900030E082E020938F003093900020C0909354
:1002A000AC0026EA30E0F6CF9B81913039F4CE01E4
:1002B0000E94530390E490938E00CCCF9230B9F318
:1002C000933079F59A81913098F486E790E08093A5
:1002D0008F009093900080E480938E0084E09F8153
:1002E0009111C1CF9E81981708F0BDCF892FBBCF48
:1002F00059F48AE690E080938F009093900080E418
:1003000080938E008CE0EBCF923059F484E590E03E
:1003100080938F009093900080E480938E0086E11C
:10032000DECF90E490938E00DACF9093AB00B9CFFC
:100330009BE490939200B5CF26EA30E0A4CF809161
:100340008E0087FF32CFCE010E946C038F3F21F4D5
:100350008EE18093610029CF811509F426CF109298
:10036000600023CF80918F0090919000462F480F1E
:1003700026FF16C0FC012EE930E05491D9015C93B0
:100380002F5F3F4F31964E13F8CF01962FEF260F78
:10039000820F911D80938F0090939000C62F2BCFDA
:1003A000AEE9B0E0FC0121912D934E13FCCFEDCFCF
:1003B0008FEF809360008EE12ACF85B7836085BF81
:1003C0008BB780648BBFE1E9F0E08BE481838AE541
:1003D00080830895A82FB92F80E090E041E050EA93
:1003E000609530E009C02D9182279795879510F090
:1003F00084279527305EC8F36F5FA8F30895EADF7E
:100400008D939D930895CF93CFB7CF93C395839B3F
:10041000E9F7839B09C0839B07C0839B05C0839B2F
:1004200003C0839B01C0A6C0DF93C091AE00DD274F
:10043000C155DF4F839B02C0DF91EBCF2F930F930A
:100440001F9300B32FEF03FB20F94F933F9310B39B
:100450004FEF012703FB21F93BE031C04E7F012F15
:1004600010B3216028C0102F4D7F2260000000B320
:1004700029C04B7F2460012F000010B32BC010B3A4
:10048000477F28602AC04F7E00B320612CC04F7D7B
:1004900010B320622FC04F7B00B3206432C04227CC
:1004A00000B349934FEF0000102713FB20F910B35E
:1004B0001C70C9F1297F91F2012703FB21F900B3D8
:1004C000237F89F2315058F1102713FB22F910B322
:1004D000277E79F2012703FB23F92F7C81F200B3F9
:1004E000102713FB24F92F7971F200C010B30127F4
:1004F00003FB25F92F7359F200C000B3102713FB3B
:1005000026F9223040F200C010B3012703FB27F97F
:10051000243028F64F77206810B30000F9CF10E49C
:100520001ABF00271CC03B503195C31BD04010E4BC
:100530001ABF0881033C11F10B3401F12091AD0089
:100540001981110F1213EDCF4A81441F093659F159
:100550000D3211F0013E29F74F7009F0042F00937E
:10056000A9003F914F911F910F912F91DF91CAB731
:10057000C6FD4CCFCF91CFBFCF9118952091A90048
:10058000222379F31091AA00112369F534306AF11E
:100590003093AA002093A8001091AE003BE0311BDD
:1005A0003093AE0022C00091AA000130E4F40AE5C5
:1005B0004F7049F43091610034FD19C0009361001F
:1005C000CDE9D0E018C03091910034FD10C0009307
:1005D0009100C2E9D0E00FC02795A8F45150A9F4CA
:1005E000220F0000F9CF4AE503C042ED01C0432FBE
:1005F000C4E1D0E032E011B31C60939A11BB02B3A6
:1006000020E41CE05F93012756E002BB279520F40D
:10061000515021F4220FF9CF012756E000003B5A38
:1006200002BBD0F2279528F4515029F4220F000084
:10063000F9CF012756E0279502BB20F4515021F451
:10064000220FF9CF012756E02991332302BB21F66F
:10065000037F1091AC00110FC651D04002BB11F0C6
:100660001093AD0010E41ABF086011B3137F402F40
:10067000437F5F9100C000C002BB11BB42BB71CF82
:10068000E091C500F0E0DF011496AF739091C600D1
:100690009A1741F0E953FF4F80836183428323839C
:1006A000A093C5000895FC018381813041F02AE7C1
:1006B00030E085E620938F003093900008952FED71
:1006C00030E082E1F7CF8FEF089527E0FC0111922F
:1006D0002A95E9F787E0089581E00895089510923A
:1006E000C5001092C6000895242F2F77462F4F770C
:1006F0008F70682F606989E00C944003242F2F7756
:10070000462F4F778F70682F606888E00C94400305
:10071000242F2F77462F4F778F70682F606B8BE0D9
:100720000C944003CF938091C6004091C50084177C
:10073000C9F09091910094FF15C090E09C012C5F4E
:100740002F73421719F0C8E0211101C0C4E06C2FCB
:1007500089539F4F0E9498008091C6008C0F8F7321
:100760008093C600CF910895E6E6F0E041E050E0C6
:1007700087B32191BA0101C0660F2A95EAF7862B4B
:1007800087BB88B3DF012E91DA0101C0AA0F2A9539
:10079000EAF78A2B88BBB0E0EA36FB0749F7E2E6C6
:1007A000F0E066E670E041E050E02AB38191DA01C2
:1007B00001C0AA0F8A95EAF78A2F809582238ABB07
:1007C0008BB3DF012E91DA0101C0AA0F2A95EAF757
:1007D0008A2B8BBB6E177F0741F71092170110927F
:1007E0001801E7E0F1E080E1DF011D928A95E9F769
:1007F0000895EF92FF920F931F93CF93DF93A6E696
:10080000B0E020E030E0B901E1E0F0E048B38D91E4
:10081000EF0101C0CC0F8A95EAF78C2F80958423D5
:1008200088BBD4E1DA95F1F7C9B382E690E0A9017B
:10083000EC2EF12CEC011991CE01E70102C0D59507
:10084000C7951A95E2F7C0FD09C08F01042E02C0BA
:10085000000F111F0A94E2F7602B712B4F5F5F4F5F
:10086000D0E086369D0731F788B3ED014A91EF015C
:1008700001C0CC0F4A95EAF78C2B88BB2C5F3F4F09
:100880002031310519F68091170190911801E7E0A8
:10089000F1E020E030E0C1E0D0E0DE01022E02C055
:1008A000AA0FBB1F0A94E2F7AB01482759274A2336
:1008B0005B23452BC1F040814F5F453090F440836E
:1008C0002F5F3F4F31962031310539F78093170163
:1008D00090931801DF91CF911F910F91FF90EF90AE
:1008E00008958A279B271082EBCF80911701909162
:1008F00018010895CF93C82F80913F012C2F30E02D
:10090000813018F58C2F8695869563E070E0681B22
:10091000675F660F660F8C2F8370680F4FE780E06C
:100920000E94740321E030E002C0220F331FCA95F9
:10093000E2F780911B0190911C01822B932B8093F5
:100940001B0190931C01CF91089541F426583F4F0D
:100950004FE7F9016081CF910C94880326593F4FEE
:100960004FE7F901608182E0F6CFCF93DF93C1E0DA
:10097000D0E0082E02C0CC0FDD1F0A94E2F72091D0
:100980001B0130911C012C233D2321153105D9F089
:10099000282F2695269563E070E0621B675F660F3F
:1009A000660F8370680F40E080E00E947E03C09570
:1009B000D09580911B0190911C018C239D238093E5
:1009C0001B0190931C01DF91CF91089510923F017C
:1009D00010921D0110921E0110921B0110921C0119
:1009E00010921A011092190180E1EFE2F1E0DF01AB
:1009F000982F1D929A95E9F7EFE1F1E0DF011D9242
:100A00008A95E9F780E00C943306AF92BF92CF92BB
:100A1000DF92EF92FF920F931F93CF93DF930E9489
:100A2000750420911D0130911E016901C094D0947C
:100A3000C822D9227C01E094F094E222F322809330
:100A40001D0190931E010FE211E05801C0E0D0E0BB
:100A500081E090E00C2E02C0880F991F0A94E2F703
:100A60008C219D21892B31F18C2F90911A019115A8
:100A700049F090913F01911105C0C13081F063E1CF
:100A8000C53071F0811519F0833009F090C021E074
:100A9000F5012083FE01E15EFE4F8EE10AC062E1B6
:100AA0004FE780E00E94880381E08093190183E092
:100AB000F501808321968FEFA81AB80AC031D105BD
:100AC00039F680912F01813009F07DC090913E016F
:100AD000913009F078C083E080932F0180933E012C
:100AE000C0E08C2F0E94B504CF5FC031D1F71092C7
:100AF0001A011092190180913F0190E0019663E084
:100B000070E00E946C0680933F010E9433069FE1D3
:100B1000C92E91E0D92E2FE2A22E21E0B22EC0E004
:100B2000D2E0F50181915F01813049F4F6018081C5
:100B3000811172C08C2F0E947A04F501D293CF5F8D
:100B4000FFEFCF1ADF0AC03161F7C0E0D0E05E01ED
:100B5000A394C5010C2E02C0880F991F0A94E2F7D6
:100B60008E219F21892B09F461C0DC2E80911A010E
:100B7000811589F0C11519F083E0C8130CC080916C
:100B80001901811104C04FE760E10E9488031092AF
:100B90001A0110921901F8018081813009F041C0D9
:100BA0008D2D0E947A048D2D0E94B5043DC08C309D
:100BB00009F46DCF8F3009F46ACF0E947A0422E0E5
:100BC000F501208377CF90913F019111A0CF813023
:100BD00071F490913201913051F493E090932F0190
:100BE0009093320180931A011092190190CF809155
:100BF0003B01813009F08BCF80913E01813009F0BB
:100C000086CF83E080933B0180933E014FE761E113
:100C100080E00E9488037BCF8150808381118FCF39
:100C200089CF823009F4BFCFF801108221960F5F7F
:100C30001F4FC031D10509F08CCFDF91CF911F91AB
:100C40000F91FF90EF90DF90CF90BF90AF900895FD
:100C500080913F0108958C9A81E28FBD8AE08EBD1C
:100C600019BC18BC0895833048F4E82FF0E0E6572B
:100C7000FF4F808190E099BD88BD08958FEF90E08F
:100C8000FACFF8940E94B4030E942B060E946F03CF
:100C90008BE083BF8BEB8CBF82E088BF0E94DD01BD
:100CA0008B9A2FE785E899E0215080409040E1F74A
:100CB00000C000008B9878940E94E604C2E00E9475
:100CC000BF0008B601FE05C0C8BF0E94F9030E941C
:100CD00005050E949203F3CF97FB072E16F40094AC
:100CE00007D077FD09D00E94860607FC05D03EF4A8
:100CF000909581959F4F0895709561957F4F0895C8
:100D0000EE0FFF1F0590F491E02D0994AA1BBB1B69
:100D100051E107C0AA1FBB1FA617B70710F0A61BFB
:100D2000B70B881F991F5A95A9F780959095BC011C
:100D3000CD010895F894FFCF4501510151015101B2
:100D400051014F0154015101410195019C0198014C
:100D5000FF5A01000203050003041F142021271578
:100D600028222324292A2B2C2D2E1F14202118154C
:0E0D7000192223241E1A161C1B1728A0FF0090
:00000001FF
