:100000000C9481000C940B020C949E000C949E00A6
:100010000C949E000C949E000C949E000C949E00E8
:100020000C949E000C949E000C949E000C949E00D8
:100030000C949E000C949E000C949E000C949E00C8
:100040000C949E000C949E000C949E000C949E00B8
:100050000C949E001E034200690074005000610071
:10006000640034007800340020004D004900440052
:1000700049001403420069007400500061006400EC
:100080003400780034000403090409026500020109
:1000900000003209040000000101000009240100F1
:1000A0000109000101090401000201030000072405
:1000B000010001410006240201010006240202029F
:1000C00000092403010301020100092403020401C1
:1000D0000101000905010308000A000005250101CE
:1000E000010905810308000A00000525010103122A
:1000F00001100100000008C016E405000101020023
:10010000010011241FBECFE5D8E0DEBFCDBF10E057
:10011000A0E6B0E0EEE7F0E102C005900D92A83A4B
:10012000B107D9F721E0A8EAB0E001C01D92AC35D3
:10013000B207E1F70E94D6070C9431080C94000036
:10014000CF93C62F2091AB0024FF1DC02091AC009F
:1001500038E823272093AC00EDEAF0E09C01D901B8
:100160002F5F3F4F9C9191939C2F921B980F09F00A
:10017000B2F76C2F8DEA90E00E940702CC5FC0932B
:10018000AB00CF9108952AE52093AB00E5CFCF9344
:10019000DF936091C400635092F08091C800CCE07E
:1001A000D0E0C81BD109C753DF4F8091C200803116
:1001B00008F044C0CE010E9476031092C4008091E2
:1001C000610084FF2EC0C0916000CF3F51F16C2FC1
:1001D000C93008F068E08C2F861B80936000809106
:1001E000B70098E889278093B700C11561F0209186
:1001F000A80027FFBFC088EB90E00E946D03C82FC6
:10020000893008F0DDC06C2F88EB90E00E94070277
:1002100084E08C0FC83019F09FEF909360008093BA
:10022000610084E190B39C7031F48150D9F7109251
:10023000C6001092C700DF91CF9108958D3209F06A
:1002400086C0683009F0B9CF83EC8093B7008AE5A7
:10025000809361001092A8008881807679F0CE01A9
:100260000E946B038F3F09F042C0988197FD8E81F9
:1002700090E89093A800809360009FCF9A8110929D
:10028000C000E981EC30A8F4F0E0ED5CF74F0C948D
:100290002B0825EC30E081E005C01092C10020EC75
:1002A00030E082E02093A9003093AA0020C0909310
:1002B000C60020EC30E0F6CF9B81913039F4CE01BE
:1002C0000E945B0390E49093A800CCCF9230B9F3E6
:1002D000933079F59A81913098F486E890E0809394
:1002E000A9009093AA0080E48093A80084E09F81F5
:1002F0009111C1CF9E81981708F0BDCF892FBBCF38
:1003000059F482E790E08093A9009093AA0080E4DA
:100310008093A80084E1EBCF923059F484E590E01B
:100320008093A9009093AA0080E48093A8008EE1B6
:10033000DECF90E49093A800DACF9093C500B9CFB8
:100340009BE49093AC00B5CF20EC30E0A4CF80913B
:10035000A80087FF32CFCE010E9474038F3F21F4A3
:100360008EE18093610029CF811509F426CF109288
:10037000600023CF8091A9009091AA00462F480FDA
:1003800026FF16C0FC0128EB30E05491D9015C93A4
:100390002F5F3F4F31964E13F8CF01962FEF260F68
:1003A000820F911D8093A9009093AA00C62F2BCF96
:1003B000A8EBB0E0FC0121912D934E13FCCFEDCFC3
:1003C0008FEF809360008EE12ACF85B7836085BF71
:1003D0008BB780648BBFEBEAF0E08BE481838AE526
:1003E00080830895A82FB92F80E090E041E050EA83
:1003F000609530E009C02D9182279795879510F080
:1004000084279527305EC8F36F5FA8F30895EADF6D
:100410008D939D930895CF93CFB7CF93C395839B2F
:10042000E9F7839B09C0839B07C0839B05C0839B1F
:1004300003C0839B01C0A6C0DF93C091C800DD2725
:10044000C753DF4F839B02C0DF91EBCF2F930F93F6
:100450001F9300B32FEF03FB20F94F933F9310B38B
:100460004FEF012703FB21F93BE031C04E7F012F05
:1004700010B3216028C0102F4D7F2260000000B310
:1004800029C04B7F2460012F000010B32BC010B394
:10049000477F28602AC04F7E00B320612CC04F7D6B
:1004A00010B320622FC04F7B00B3206432C04227BC
:1004B00000B349934FEF0000102713FB20F910B34E
:1004C0001C70C9F1297F91F2012703FB21F900B3C8
:1004D000237F89F2315058F1102713FB22F910B312
:1004E000277E79F2012703FB23F92F7C81F200B3E9
:1004F000102713FB24F92F7971F200C010B30127E4
:1005000003FB25F92F7359F200C000B3102713FB2A
:1005100026F9223040F200C010B3012703FB27F96F
:10052000243028F64F77206810B30000F9CF10E48C
:100530001ABF00271CC03B503195C31BD04010E4AC
:100540001ABF0881033C11F10B3401F12091C7005F
:100550001981110F1213EDCF4A81441F093659F149
:100560000D3211F0013E29F74F7009F0042F00936E
:10057000C3003F914F911F910F912F91DF91CAB707
:10058000C6FD4CCFCF91CFBFCF9118952091C3001E
:10059000222379F31091C400112369F534306AF1F4
:1005A0003093C4002093C2001091C8003BE0311B7F
:1005B0003093C80022C00091C4000130E4F40AE581
:1005C0004F7049F43091610034FD19C0009361000F
:1005D000C7EBD0E018C03091AB0034FD10C00093E1
:1005E000AB00CCEAD0E00FC02795A8F45150A9F495
:1005F000220F0000F9CF4AE503C042ED01C0432FAE
:10060000C4E1D0E032E011B31C60939A11BB02B395
:1006100020E41CE05F93012756E002BB279520F4FD
:10062000515021F4220FF9CF012756E000003B5A28
:1006300002BBD0F2279528F4515029F4220F000074
:10064000F9CF012756E0279502BB20F4515021F441
:10065000220FF9CF012756E02991332302BB21F65F
:10066000037F1091C600110FC651D04002BB11F09C
:100670001093C70010E41ABF086011B3137F402F16
:10068000437F5F9100C000C002BB11BB42BB71CF72
:10069000E091DF00F0E0DF011496AF739091E0008D
:1006A0009A1741F0EF51FF4F808361834283238388
:1006B000A093DF000895FC018381813041F02AE896
:1006C00030E085E62093A9003093AA0008952FEE2C
:1006D00030E082E1F7CF8FEF089527E0FC0111921F
:1006E0002A95E9F787E0089581E00895089510922A
:1006F000DF001092E0000895242F2F77462F4F77C8
:100700008F70682F606989E00C944803242F2F773D
:10071000462F4F778F70682F606888E00C944803ED
:10072000242F2F77462F4F778F70682F606B8BE0C9
:100730000C944803CF938091E0004091DF00841730
:10074000C9F09091AB0094FF15C090E09C012C5F24
:100750002F73421719F0C8E0211101C0C4E06C2FBB
:100760008F519F4F0E94A0008091E0008C0F8F73EB
:100770008093E000CF910895E8E6F0E041E050E09A
:1007800087B32191BA0101C0660F2A95EAF7862B3B
:1007900087BB88B3DF012E91DA0101C0AA0F2A9529
:1007A000EAF78A2B88BBB0E0EC36FB0749F7E4E6B2
:1007B000F0E068E670E041E050E02AB38191DA01B0
:1007C00001C0AA0F8A95EAF78A2F809582238ABBF7
:1007D0008BB3DF012E91DA0101C0AA0F2A95EAF747
:1007E0008A2B8BBB6E177F0741F710923101109255
:1007F0003201E1E2F1E080E1DF011D928A95E9F743
:100800000895EF92FF920F931F93CF93DF93A8E683
:10081000B0E020E030E0B901E1E0F0E048B38D91D4
:10082000EF0101C0CC0F8A95EAF78C2F80958423C5
:1008300088BBD4E1DA95F1F7C9B384E690E0A90169
:10084000EC2EF12CEC011991CE01E70102C0D595F7
:10085000C7951A95E2F7C0FD09C08F01042E02C0AA
:10086000000F111F0A94E2F7602B712B4F5F5F4F4F
:10087000D0E088369D0731F788B3ED014A91EF014A
:1008800001C0CC0F4A95EAF78C2B88BB2C5F3F4FF9
:100890002031310519F68091310190913201E1E268
:1008A000F1E020E030E0C1E0D0E0DE01022E02C045
:1008B000AA0FBB1F0A94E2F7AB01482759274A2326
:1008C0005B23452BC1F040814F5F453090F440835E
:1008D0002F5F3F4F31962031310539F78093310139
:1008E00090933201DF91CF911F910F91FF90EF9084
:1008F00008958A279B271082EBCF80913101909138
:1009000032010895CF93C82F80915A012C2F30E0E7
:10091000813018F58C2F8695869563E070E0681B12
:10092000675F660F660F8C2F8370680F4FE780E05C
:100930000E947C0321E030E002C0220F331FCA95E1
:10094000E2F78091360190913701822B932B8093AF
:10095000360190933701CF91089541F42C573F4FC2
:100960004FE7F9016081CF910C9490032C583F4FD1
:100970004FE7F901608182E0F6CF80914F0181302D
:1009800049F580E090E021E030E0853001F1A901F7
:10099000082E02C0440F551F0A94E2F7511591F03A
:1009A000FC01E65BFE4F4081413061F423E020937F
:1009B0004F0120838C599F4F4FE7FC01608182E0FB
:1009C0000C949003019680319105F9F6089586E024
:1009D00090E0DDCF0895CF93DF93C1E0D0E0082E03
:1009E00002C0CC0FDD1F0A94E2F72091360130914E
:1009F00037012C233D2321153105D9F0282F2695C9
:100A0000269563E070E0621B675F660F660F837078
:100A1000680F40E080E00E948603C095D0958091E9
:100A20003601909137018C239D238093360190935A
:100A30003701DF91CF910895CF93C0E08C2F0E94B2
:100A4000EB04CF5FC031D1F7CF91089510925A01D6
:100A5000109238011092390110923601109237012C
:100A6000109235011092340181E08093330180E1CE
:100A7000EAE4F1E0DF01982F1D929A95E9F7EAE3A5
:100A8000F1E0DF011D928A95E9F780E00E940D07F1
:100A900080915A010C94BE07AF92BF92CF92DF9221
:100AA000EF92FF920F931F93CF93DF930E947D04E9
:100AB00020913801309139016901C094D094C82245
:100AC000D9227C01E094F094E222F3228093380151
:100AD000909339010AE411E05801C0E0D0E06C2F96
:100AE00021E030E00C2E02C0220F331F0A94E2F7FF
:100AF000C9018C219D21892BD9F08C2F9091350132
:100B0000911509F494C090915A01911190C0C93087
:100B100009F48BC0CD3009F08AC063E14FE780E073
:100B20000E94900381E08093340183E0F50180838B
:100B300021968FEFA81AB80AC031D10581F690919D
:100B40004A01913009F0ABC080915901813009F020
:100B5000A6C083E080934A01809359010E941C053E
:100B6000109235011092340180915A0190E0019663
:100B700063E070E00E94170880935A010E940D07FD
:100B800080915A010E94BE079AE3C92E91E0D92EA6
:100B90002AE4A22E21E0B22EC0E0D2E0F50181913C
:100BA0005F01813049F4F601808181110FC18C2FE2
:100BB0000E948204F501D293CF5FFFEFCF1ADF0AC4
:100BC000C03161F7C0E0D0E05E01A394C5010C2EF6
:100BD00002C0880F991F0A94E2F78E219F21892B6A
:100BE00009F4FEC0DC2E80913501811591F08CE076
:100BF000C81719F09FE0C9130CC08091340181110E
:100C000004C04FE761E10E949003109235011092F9
:100C10003401F8018081813009F0DDC08D2D0E9402
:100C200082048D2D0E94EB04D9C062E177CF81153B
:100C300039F1833029F18C3019F18F3009F190911D
:100C40005A01911119C090913301911579F0982FA3
:100C50009B7F9130A9F04DED5FEF02C0569547950F
:100C60006A95E2F740FD0CC031110AC00E9482046F
:100C700022E0F50120835CCF923051F48530A1F75A
:100C800021E0F5012083FE01E65CFE4F8EE14FCFAF
:100C9000913061F78130A1F38A3041F7F1CFC091F3
:100CA0004D01C13071F480915601813051F483E0DF
:100CB00080934D01809356010E941C050E94C2073B
:100CC00063CF80915A01811169C0913069F4C130BC
:100CD00001F583E080934A0180934D014FE760E185
:100CE00080E00E94900350CFC13099F48091590167
:100CF000813079F483E080934D01809359010E9403
:100D00001C05809133018C27809333010E94CE070C
:100D10003BCF80915601813071F48091590181302F
:100D200051F493E0909356019093590180933501CB
:100D30001092340129CF80913301811509F424CF19
:100D400080914B01813021F580E090E02DED3FEF67
:100D5000813009F1A901082E02C0569547950A94E1
:100D6000E2F740FF11C0FC01E65BFE4F40814130DD
:100D700059F423E020934B0120838C589F4F4FE779
:100D8000FC01608182E0ADCF01968031910501F7D1
:100D90000E94BD04F9CE82E090E0DCCF8230C1F346
:100DA000813009F0F1CE80914B01813009F0ECCE19
:100DB00080915401813009F0E7CE83E080934B01AC
:100DC000809354014FE76DE181E08BCF81508083A8
:100DD0008111F2CEECCE823009F423CFF8011082DB
:100DE00021960F5F1F4FC031D10509F0EFCEDF9183
:100DF000CF911F910F91FF90EF90DF90CF90BF9018
:100E0000AF90089580915A0108958C9A81E28FBD28
:100E10008AE08EBD19BC18BC0895833048F4E82FD1
:100E2000F0E0EC56FF4F808190E099BD88BD0895B9
:100E30008FEF90E0FACF80ED97E006B607FC04C094
:100E40000197D9F780E0089581E00895EF92FF922D
:100E50000F931F93CF93DF93CDB7DEB72C970FB6C9
:100E6000F894DEBF0FBECDBF80915B01833008F0E8
:100E700045C0E0916300F0E0E656FF4F408190915D
:100E80006200982BB9F190E0FC01EE0FFF1FE80F14
:100E9000F91FE156FF4F8081489FC0011124292F7F
:100EA0008181489FC00111248281489FA0011124A3
:100EB000852F29839A838B832C839D838E832F8315
:100EC000988789872A879B878C8784EA86BF0E94B8
:100ED0001B07811117C084E986BF2C960FB6F894C2
:100EE000DEBF0FBECDBFDF91CF911F910F91FF905D
:100EF000EF90089580E5E7E9F0E0CECF80E090E064
:100F000020E0D7CF81B1887F883029F780EB83B983
:100F100084E886BF0E941B078115E9F281B1887FB2
:100F20008831C9F68E010F5F1F4F7E018DE0E80EFC
:100F3000F11CF801808183B9F4E8F6BF0E941B0719
:100F4000811549F281B1887F883229F60F5F1F4FE2
:100F5000E016F10671F7BFCF85B3836085BB11B88A
:100F60008CE080B984E086BF10925B0182E08093C0
:100F7000630081E0809362000C94260780935B01FC
:100F80000C9426078091630090E0019665E070E084
:100F90000E940308809363000C94260791E081115E
:100FA00001C090E0909362000C942607F8940E9490
:100FB000BC030E9405070E94AC070E9477038BE0E8
:100FC00083BF8BEB8CBF82E088BF0E94E5018B9AC8
:100FD0002FE785E899E0215080409040E1F700C07C
:100FE00000008B9878940E942605C2E00E94C700FA
:100FF00008B601FE05C0C8BF0E9401040E944C054E
:101000000E949A03F3CFAA1BBB1B51E107C0AA1F82
:10101000BB1FA617B70710F0A61BB70B881F991F99
:101020005A95A9F780959095BC01CD01089597FB3D
:10103000072E16F4009407D077FD09D00E9403080C
:1010400007FC05D03EF4909581959F4F08957095CB
:1010500061957F4F0895EE0FFF1F0590F491E02DED
:101060000994F894FFCF4D015901590159015901D3
:0E10700057015C01590149019D01A401A00135
:10107E00FF5A010201000203050003043C3D3E3FFE
:10108E00404142431F142021271528222324292AB8
:10109E002B2C2D2E1F1420211815192223241E1A35
:1010AE00161C1B1728A0FF501E00103060A0FF005A
:0810BE00005000500050003CFE
:00000001FF
